:104BC30044435F54545F305F3030315F30303031B5
:104BD3004335315F4C50445F5454305F3030303193
:0C4BE300000000000000000000000000C6
:102B85004100000146001A000000000000604001FD
:102B95007F000000000000000000000000000000B1
:102BA5000000000000000000000000000000000020
:102BB5000000000000000000000000000000000010
:102BC5000000000000000000000000000000000000
:102BD500004800120000000000000000C107C10607
:103175009009BFE4F07BFF7A4B79E3C003C002C03E
:10318500017B017A0979C0A801AC02AD03D001D059
:1031950002D0037E007F0C1204CB7B017A0979D81B
:1031A5009009DFEBF0A3EAF0A3E9F07E007F077D4D
:1031B500009009DFE0FBA3E0FAA3E0F912094090D3
:1031C50009DFE0FBA3E0FAA3E0F974091205A17B8E
:1031D500017A01793790000FEBF0A3EAF0A3E9F04B
:1031E5009009BFE4F09009BFE0FFEFC39403504698
:1031F5007BFF7A4B79EFC003C002C0019009BFE0A5
:10320500FF7E18EF8EF0A4FFAEF090000FE0FBA359
:10321500E0FAA3E0F9E92FF9EA3EFAA801AC02AD1C
:1032250003D001D002D0037E007F181204CB900991
:10323500BFE004F080AF1228249000157401F090CF
:1032450000177401F09000187401F0C2B57F647E18
:1032550000123E182007030233C59009BFE4F09021
:1032650009BFE0FFEFC3940340030233C39009DFB6
:10327500E0FBA3E0FAA3E0F91238C69009DFE0FB12
:10328500A3E0FAA3E0F97582017583001207D2EF76
:103295002400FFEE3400FEED3480FDEC34FFFC909D
:1032A50009BFE0FBEB75F014A4242AF582E4340091
:1032B500F583E0F9A80112078CE412033C7B997AA7
:1032C500017932783A1201969009BFE0FBEB25E0CF
:1032D50025E024C0F582E43409F5831208909009AD
:1032E500BFE0FF7E18EF8EF0A4FFAEF090000FE078
:1032F500FBA3E0FAA3E0F9E92FF9EA3EFA9009BF4A
:10330500E0FFEF25E025E024C0F582E43409F583EC
:10331500E0FCA3E0FDA3E0FEA3E0FF123741900926
:10332500BFE0FBEB25E025E024CCF582E43409F58C
:10333500831208909009BFE0FFEF25E025E024CC3B
:10334500F582E43409F583E0FF7E009009BFE0FDD6
:10335500ED25E0241AF582E43400F583EEF0A3EFC1
:10336500F09009BFE0FFEF25E0241AF582E4340070
:10337500F583C083C082E0FEA3E0FFEF7F00FED0AF
:1033850082D083EEF0A3EFF09009BFE0FFEF25E0D8
:1033950025E024CDF582E43409F583E0FF7E009035
:1033A50009BFE0FDED25E0241AF582E43400F5833C
:1033B500EEF0A3EFF09009BFE004F0023264C2071B
:1033C5007B017A0279C11249E9EF4E600312430984
:0533D500D2070232598D
:0133DA0022D0
:10282400900B17E4F0124B64C200900AE512089C66
:102834000001C200900AE9E4F0D201C20212443756
:10284400D203900AF212089C0000C350D204C205BD
:102854001241D0D20A7D017F01124062124C1E7BCC
:10286400017A0279C112499F7B017A0179BF124929
:102874009FD2AF900B17E4F0900B17E0FFEFC394D7
:1028840003400302292F900B17E0FF7E00EF240979
:10289400FFEE3400FEC006C007900B17E0FFEF54B4
:1028A40007FF7E00EF7B00C454F0FA900B17E0FFA3
:1028B4007E00EF2401FFEE3400FE7E00EF541FFF84
:1028C400EF7805C333CE33CED8F9FF900A18EEF073
:1028D400A3EFF0900B17E0FFEF541FFF7E00900A68
:1028E4001AEEF0A3EFF0D007D0067D007C801248EA
:1028F40004C003C002C001900B17E0FF7E09EF8EF5
:10290400F0A4FFAEF0741C2FF974013EFA7B01A809
:1029140001AC02AD03D001D002D0037E007F0912C6
:1029240004CB900B17E004F002287C900B17E4F022
:10293400900B17E0FFEFC3940340030229D7900BD9
:1029440017E0FFEF2419FF90099EE4F090099F74AB
:1029540080F09009A07440F09009A17420F09009CF
:10296400A2E4F09009A37404F09009A47421F090F7
:1029740009A5E4F09009A67410F09009A7E4F0907A
:1029840009A87401F09009A9E4F0A37402F07B0093
:102994007A007D007C08123EE3C003C002C00190AF
:1029A4000B17E0FF7E14EF8EF0A4FFAEF074202F1F
:1029B400F974003EFA7B01A801AC02AD03D001D04A
:1029C40002D0037E007F141204CB900B17E004F0B6
:1029D4000229349009E7E4F0A3E4F09009E9E4F073
:1029E400A3E4F09009EBE4F0A3E4F09009ED74C0E3
:1029F400F09009EEE4F09009EFE4F07B007A007DBA
:102A0400007C007F011244CCC003C002C0017B01E2
:102A14007A007901A801AC02AD03D001D002D00341
:102A24007E007F0E1204CB900A297424F0A3E4F0F4
:102A3400900A2B74B8F0900A2CE4F0A3E4F07B0025
:102A44007A807D007F001248E1C003C002C0017B90
:102A5400017A0379C3A801AC02AD03D001D002D03E
:102A6400037E007F091204CBD2B57F0A7E00123E9A
:102A740018C2B57F0A7E00123E187F40124C077FB1
:102A840000124C07900B17E4F0900B17E0FFEFC314
:102A940094034003022B26900B17E0FF7E09EF8E70
:102AA400F0A4FFAEF0741C2FF974013EFA7B01C050
:102AB40003C002C0017B017A0A7987A801AC02AD88
:102AC40003D001D002D0037E007F091204CB124947
:102AD400487F047E00123E18900B17E0FF7E14EF2F
:102AE4008EF0A4FFAEF074202FF974003EFA7B013F
:102AF400C003C002C0017B017A0979FEA801AC02BF
:102B0400AD03D001D002D0037E007F141204CB1297
:102B140041197F047E00123E18900B17E004F00266
:102B24002A8D7B017A0379C3C003C002C0017B01F3
:102B34007A0A7990A801AC02AD03D001D002D00387
:102B44007E007F091204CB1247887F047E00123E68
:102B5400187B017A007901C003C002C0017B017AAD
:102B64000A7962A801AC02AD03D001D002D0037E81
:102B7400007F0E1204CB1200267F647E00123E18E2
:012B8400222E
:104AB4007DFF7F017E0012470B7DFF7F017E001288
:104AC400470B90001AE0FEA3E0FFEEFF7E00EF54D8
:104AD400FFFD7F017E0012470B90001AE0FEA3E069
:0D4AE400FFEF54FFFD7F017E0012470B2203
:104BEF003CA3D70A000000000000000000000000F6
:084BFF003F0000003F0B020C17
:10374100900AB2EBF0A3EAF0A3E9F0900AB51208EF
:1037510090900AB2E0FBA3E0FAA3E0F9758210753C
:1037610083001207D2900AB2E0FBA3E0FAA3E0F9CA
:103771001208401200A5900AB2E0FBA3E0FAA3E010
:10378100F975820475830012081C900AB2E0FBA34C
:10379100E0FAA3E0F97582147583001207D2900A4A
:1037A100B2E0FBA3E0FAA3E0F9758204758300128D
:1037B10008601200A5C004C005C006C007900AB287
:1037C100E0FBA3E0FAA3E0F9758204758300120718
:1037D100D2D003D002D001D00012029F900AB2E0F1
:1037E100FBA3E0FAA3E0F975820C75830012081CB3
:1037F100900AB2E0FBA3E0FAA3E0F9E92408F9EAB0
:103801003400FAC003C002C0011207B2C004C005EF
:10381100C006C007900AB2E0FBA3E0FAA3E0F97585
:103821008208758300120860900AB5E0FCA3E0FDF0
:10383100A3E0FEA3E0FF1200A1900AB2E0FBA3E027
:10384100FAA3E0F975820C758300120860120196E3
:10385100A804A905AA06AB07D007D006D005D00455
:103861001200A5D001D002D003120802900AB2E0E2
:10387100FBA3E0FAA3E0F975820C758300120860DE
:103881007F007E007D807C3F1200A1900AB2E0FBA8
:10389100A3E0FAA3E0F975820475830012086012AF
:1038A1000196900AB2E0FBA3E0FAA3E0F912080244
:1038B100900AB2E0FBA3E0FAA3E0F97582087583F0
:0538C100001207D222F5
:10499F00900AFEEBF0A3EAF0A3E9F07E017F007D21
:1049AF0000900AFEE0FBA3E0FAA3E0F912094090A1
:1049BF000AFEE0FBA3E0FAA3E0F97582007583011C
:1049CF00E41205B3900AFEE0FBA3E0FAA3E0F97549
:0A49DF008201758301E41205B32282
:1049E900900B01EBF0A3EAF0A3E9F0900B01E0FBD7
:1049F900A3E0FAA3E0F975820075830112050AFFA5
:104A09007E00C3E49FFF74019EFE900B01E0FBA3AF
:104A1900E0FAA3E0F975820175830112050AFD7CAC
:0A4A290000EF2DFFEE3CFE7E0022A0
:0B3C5D00900AA2EBF0A3EAF0A3E9F04C
:103C6800900AA9E4F0900AA2E0FBA3E0FAA3E0F925
:103C780075820175830112050AFF7E00EF2401FF9A
:103C8800EE3400FE7E00900AA2E0FBA3E0FAA3E077
:103C9800F975820075830112050AFD7C00EF6D70CD
:103CA80002EE6C7003023D3F900AA8E0FF900AA95B
:103CB800E0FEEEC39F4003023D3F900AA5E0FBA350
:103CC800E0FAA3E0F9900AA9E0FF04F08F82758377
:103CD8000012050AFF900AA2E0FBA3E0FAA3E0F9AC
:103CE8007582017583017401120537FE900AA2E0FE
:103CF800FBA3E0FAA3E0F98E82758300EF1205B307
:103D0800900AA2E0FBA3E0FAA3E0F97582017583AB
:103D18000112050AFF7E00EFB4008DEEB401899010
:103D28000AA2E0FBA3E0FAA3E0F97582017583011A
:073D3800E41205B3023CB0E8
:013D3F002261
:0B3D4000900AAAEBF0A3EAF0A3E9F060
:103D4B00900AB1E4F0900AAAE0FBA3E0FAA3E0F931
:103D5B0075820175830112050AFF900AAAE0FBA385
:103D6B00E0FAA3E0F975820075830112050AFEEEF5
:103D7B006F7003023E17900AB0E0FF900AB1E0FEAD
:103D8B00EEC39F4003023E17900AAAE0FBA3E0FAA2
:103D9B00A3E0F97582007583017401120537FF905A
:103DAB000AAAE0FBA3E0FAA3E0F98F827583001265
:103DBB00050AFF900AADE0FBA3E0FAA3E0F91208B5
:103DCB00CD900AB1E0FE8E82758300EF1205B390A1
:103DDB000AB1E004F0900AAAE0FBA3E0FAA3E0F931
:103DEB0075820075830112050AFF7E00EFB4008611
:103DFB00EEB40182900AAAE0FBA3E0FAA3E0F97506
:0C3E0B008200758301E41205B3023D81C2
:013E17002288
:052BE50042096C000034
:104309007B017A0579CC120A15EF60030243A0906C
:1043190005CEE0FFEF1208ED433D01433D0243485E
:1043290003435304435E0543690643740F437F10F7
:104339000000438A7B017A0579CC1220EE80497B03
:10434900017A0579CC1214D9803E7B017A0579CCA2
:104359001218F580337B017A0579CC122EC5802895
:104369007B017A0579CC1224AB801D7B017A057912
:10437900CC1210B980127B017A0579CC121D1180FB
:10438900077D017F011245607E017F707D007B0101
:074399007A0579CC120940FE
:0143A00022FA
:0B0A150090073CEBF0A3EAF0A3E9F02F
:100A200090073FE4F0A3E4F0900741E4F0A3E4F082
:100A3000900743E4F07B017A077943900744EBF099
:100A4000A3EAF0A3E9F07B017A0779479007FBEB73
:100A5000F0A3EAF0A3E9F07E007FB47D007B017A89
:100A60000779471209407B017A0179BFC003C002B0
:100A7000C0017B017A077944900AADEBF0A3EAF05C
:100A8000A3E9F0900AB07401F0D001D002D00312B3
:100A90003D40900743E0FFEFC3940850037F0422DA
:100AA0007B017A0279C1C003C002C0017B017A07D1
:100AB00079FB900AADEBF0A3EAF0A3E9F0900743CD
:100AC000E0FF900AB0EFF0D001D002D003123D4019
:100AD0009007FBE0FBA3E0FAA3E0F9900743E0FFF7
:100AE000EF24FEFD1243A190073FEEF0A3EFF0903C
:100AF0000743E0FF7E00EF24FEFFEE34FFFE900789
:100B0000FBE0FBA3E0FAA3E0F98F828E8312050AD3
:100B1000FF7E00EF7F00FE900743E0FD7C00ED24A8
:100B2000FFFDEC34FFFC9007FBE0FBA3E0FAA3E041
:100B3000F98D828C8312050AFD7C00EE4CFEEF4D90
:100B4000FF90073FE0FCA3E0FDEF6D7002EE6C60EC
:100B5000030210B69007FBE0FBA3E0FAA3E0F91252
:100B600004F1FF90073CE0FBA3E0FAA3E0F97582F3
:100B700001758300EF1205B39007FBE0FBA3E0FAD9
:100B8000A3E0F975820175830012050AFF90073C06
:100B9000E0FBA3E0FAA3E0F9758202758300EF128F
:100BA00005B390073CE0FBA3E0FAA3E0F9758201EE
:100BB00075830012050AFF900000E0FEEF6E6003EF
:100BC0000210B39007FBE0FBA3E0FAA3E0F9758203
:100BD0000175830012050AFFEF1208ED0BF8010BF7
:100BE000F8020BF8030BF8040C99050C99060F0595
:100BF0000F0D6810000010A79007FBE0FBA3E0FAC0
:100C0000A3E0F975820275830012050AFF7E00EFEA
:100C10007F00FE9007FBE0FBA3E0FAA3E0F97582FA
:100C20000375830012050AFD7C00EE4CFEEF4DFFBC
:100C300090073CE0FBA3E0FAA3E0F975820375831B
:100C400000EE8FF01206839007FBE0FBA3E0FAA30F
:100C5000E0F975820475830012050AFF7E00EF7FBC
:100C600000FE9007FBE0FBA3E0FAA3E0F975820524
:100C700075830012050AFD7C00EE4CFEEF4DFF90DF
:100C8000073CE0FBA3E0FAA3E0F975820575830059
:100C9000EE8FF01206830210AE90073CE0FBA3E05B
:100CA000FAA3E0F9758205758300E475F002120677
:100CB0008390073CE0FBA3E0FAA3E0F97582077597
:100CC000830074011205B39007FBE0FBA3E0FAA3D5
:100CD000E0F975820275830012050AFF7E00EF7F3E
:100CE00000FE9007FBE0FBA3E0FAA3E0F9758203A6
:100CF00075830012050AFD7C00EE4CFEEF4DFF905F
:100D0000073CE0FBA3E0FAA3E0F9758203758300DA
:100D1000EE8FF01206839007FBE0FBA3E0FAA3E05E
:100D2000F975820475830012050AFF7E00EF7F00CB
:100D3000FE9007FBE0FBA3E0FAA3E0F975820575DE
:100D4000830012050AFD7C00EE4CFEEF4DFF90077C
:100D50003CE0FBA3E0FAA3E0F9758208758300EE9E
:100D60008FF01206830210AE9007FBE0FBA3E0FABF
:100D7000A3E0F975820275830012050AFF7E00EF79
:100D80007F00FE9007FBE0FBA3E0FAA3E0F9758289
:100D90000375830012050AFD7C00EE4CFEEF4DFF4B
:100DA00090073CE0FBA3E0FAA3E0F97582037583AA
:100DB00000EE8FF01206839007FBE0FBA3E0FAA39E
:100DC000E0F975820475830012050AFF7E00EF7F4B
:100DD00000FE9007FBE0FBA3E0FAA3E0F9758205B3
:100DE00075830012050AFD7C00EE4CFEEF4DFF906E
:100DF000073CE0FBA3E0FAA3E0F9758205758300E8
:100E0000EE8FF01206839007FBE0FBA3E0FAA3E06D
:100E1000F975820675830012050AFF90073CE0FB16
:100E2000A3E0FAA3E0F9758207758300EF1205B31A
:100E3000900741E4F0A3E4F090073CE0FBA3E0FA64
:100E4000A3E0F975820575830012062CFFAEF090C1
:100E50000741E0FCA3E0FDC3ED9FEC9E40030210C0
:100E6000AE900741E0FEA3E0FFEF25E0FFEE33FE8A
:100E7000EF2407FFEE3400FE9007FBE0FBA3E0FA4F
:100E8000A3E0F98F828E8312050AFF7E00EF7D00BA
:100E9000FC900741E0FEA3E0FFEF25E0FFEE33FE0C
:100EA000EF2408FFEE3400FE9007FBE0FBA3E0FA1E
:100EB000A3E0F98F828E8312050AFF7E00EC4EFCC0
:100EC000ED4FFD90073CE0FBA3E0FAA3E0F9E92435
:100ED00008F9EA3400FA900741E0FEA3E0FFEF25AD
:100EE000E0FFEE33FEE92FF9EA3EFAEC8DF0120650
:100EF00064900742E004F07006900741E004F002BD
:100F00000E380210AE9007FBE0FBA3E0FAA3E0F975
:100F100075820275830012050AFF7E00EF7F00FED6
:100F20009007FBE0FBA3E0FAA3E0F9758203758369
:100F30000012050AFD7C00EE4CFEEF4DFF90073CD1
:100F4000E0FBA3E0FAA3E0F9758203758300EE8F5E
:100F5000F01206839007FBE0FBA3E0FAA3E0F9752B
:100F6000820475830012050AFF7E00EF7F00FE9069
:100F700007FBE0FBA3E0FAA3E0F9758205758300A7
:100F800012050AFD7C00EE4CFEEF4DFF90073CE0A1
:100F9000FBA3E0FAA3E0F9758205758300EE8FF0FC
:100FA00012068390073CE0FBA3E0FAA3E0F9758208
:100FB0000575830012062CFFAEF0EF7803CEC31345
:100FC000CE13D8F9FF90073CE0FBA3E0FAA3E0F9C9
:100FD000758207758300EF1205B390073CE0FBA311
:100FE000E0FAA3E0F975820575830012062CFFAEC6
:100FF000F07E00EF5407FFEF4E601690073CE0FBD9
:10100000A3E0FAA3E0F97582077583007401120565
:101010006E900741E4F0A3E4F090073CE0FBA3E00E
:10102000FAA3E0F975820775830012050AFF7E00B6
:10103000900741E0FCA3E0FDC3ED9FEC9E506F9054
:1010400007FBE0FBA3E0FAA3E0F9900741E0FEA371
:10105000E0FFEF2407FFEE3400FE8F828E8312053F
:101060000AFFEFFD7C0090073CE0FBA3E0FAA3E061
:10107000F9E92408F9EA3400FA900741E0FEA3E018
:10108000FFEF25E0FFEE33FEE92FF9EA3EFAEC8DA3
:10109000F0120664900742E004F07006900741E009
:1010A00004F002101980077D017F011245607F0066
:0810B0002280037FFF227FFF75
:0110B8002215
:0A456000900AEAEFF0900AEBEDF08C
:10456A00900AECE4F0A3E4F0900000E0FF9008B8B1
:10457A00EFF0900AEAE0FFEF2480FF9008B9EFF02D
:10458A00900AEBE0FF9008BAEFF07B017A0879B85D
:10459A007D031243A1900AECEEF0A3EFF0900AEC2F
:1045AA00E0FEA3E0FFEEFF7E00EF54FFFF9008BBA2
:1045BA00EFF0900AECE0FEA3E0FFEF54FFFF900853
:1045CA00BCEFF07B017A0879B8900ADA7405F07FBB
:1045DA00017E00124A337E007FB47D007B017A0897
:0545EA0079B812094040
:0145EF0022A9
:0B33DB00900AB9EBF0A3EAF0A3E9F0C0
:1033E600900ABCE4F0A3E4F0900ABEE4F0A3E4F093
:1033F600900AB9E0FBA3E0FAA3E0F97582017583B0
:103406000012050AFF900ABEE475F0011205EBAD45
:10341600F0FC74B82DF58274083CF583EFF0900A41
:10342600B9E0FBA3E0FAA3E0F97582027583001206
:10343600050AFF900ABEE475F0011205EBADF0FC3B
:1034460074B82DF58274083CF583EFF0900AB9E064
:10345600FBA3E0FAA3E0F975820575830012062C3A
:10346600FFAEF0EF25E0FF900ABEE475F00112050D
:10347600EBADF0FC74B82DF58274083CF583EFF0E3
:10348600900AB9E0FBA3E0FAA3E0F975820575831B
:103496000012062CFFAEF0EF25E0FFEE33FE7BFFB9
:1034A6007A4B79D3C003C002C001900ABEE0FCA3E8
:1034B600E0FD74B82DF974083CFA7B01A801AC0252
:1034C600AD03D001D002D0031204CB900AB9E0FBC1
:1034D600A3E0FAA3E0F975820575830012062CFFB6
:1034E600AEF0EF25E0FFEE33FE900ABFE02FF0903E
:1034F6000ABEE03EF07B017A0879B8900ABEE0FE8B
:10350600A3E0FFAD071243A1900ABCEEF0A3EFF0D3
:10351600900ABCE0FEA3E0FFEEFF7E00EF54FFFF43
:10352600900ABEE475F0011205EBADF0FC74B82DFF
:10353600F58274083CF583EFF0900ABCE0FEA3E048
:10354600FFEF54FFFF900ABEE475F0011205EBADE4
:10355600F0FC74B82DF58274083CF583EFF07B011E
:103566007A0879B8900ABEE0FEA3E0FF900ADAEF87
:10357600F07F017E00124A337E007FB47D007B011E
:073586007A0879B812094030
:01358D00221B
:0B358E00900AC0EBF0A3EAF0A3E9F004
:10359900900AC3E4F0A3E4F0900AC5E4F0A3E4F0D0
:1035A900900AC0E0FBA3E0FAA3E0F97582017583F4
:1035B9000012050AFF900AC5E475F0011205EBAD8A
:1035C900F0FC74B82DF58274083CF583EFF0900A8D
:1035D900C0E0FBA3E0FAA3E0F9758202758300124B
:1035E900050AFF900AC5E475F0011205EBADF0FC80
:1035F90074B82DF58274083CF583EFF0900AC0E0A9
:10360900FBA3E0FAA3E0F975820575830012062C85
:10361900FFAEF0EF25E0FF900AC5E475F001120551
:10362900EBADF0FC74B82DF58274083CF583EFF02E
:10363900900AC0E0FBA3E0FAA3E0F975820575835F
:103649000012062CFFAEF0EF25E0FFEE33FE7BFF04
:103659007A4B79C3C003C002C001900AC5E0FCA33C
:10366900E0FD74B82DF974083CFA7B01A801AC029D
:10367900AD03D001D002D0031204CB900AC0E0FB05
:10368900A3E0FAA3E0F975820575830012062CFF01
:10369900AEF0EF25E0FFEE33FE900AC6E02FF09082
:1036A9000AC5E03EF07B017A0879B8900AC5E0FEC8
:1036B900A3E0FFAD071243A1900AC3EEF0A3EFF018
:1036C900900AC3E0FEA3E0FFEEFF7E00EF54FFFF88
:1036D900900AC5E475F0011205EBADF0FC74B82D44
:1036E900F58274083CF583EFF0900AC3E0FEA3E08D
:1036F900FFEF54FFFF900AC5E475F0011205EBAD29
:10370900F0FC74B82DF58274083CF583EFF07B0169
:103719007A0879B8900AC5E0FEA3E0FF900ADAEFCB
:10372900F07F017E00124A337E007FB47D007B0169
:073739007A0879B81209407B
:013740002266
:0B20EE00900A46EBF0A3EAF0A3E9F033
:1020F900900A49E4F0A3E4F0900A4BE4F0A3E4F079
:10210900900A4DE4F0A3E4F0900A4FE4F0A3E4F060
:10211900900A51E4F0900A52E4F0A3E4F0C2087E78
:10212900007FB47D007B017A0879B8120940900AD2
:1021390046E0FBA3E0FAA3E0F97582057583001276
:10214900062CFFAEF0C3EF9401EE94004020900AF4
:1021590046E0FBA3E0FAA3E0F97582057583001256
:10216900062CFFAEF0D3EF94D0EE9407401B900AF3
:1021790046E0FBA3E0FAA3E0F97582027583001239
:10218900050AFF7D0312456022900A46E0FBA3E0A1
:10219900FAA3E0F975820375830012062CFFAEF0ED
:1021A900C3EE9400500302222F900A46E0FBA3E0FD
:1021B900FAA3E0F975820375830012062CFFAEF0CD
:1021C900D3EF9408EE9400505D900A46E0FBA3E03B
:1021D900FAA3E0F975820575830012062CFFAEF0AB
:1021E900D3EF9409EE9400503D900A46E0FBA3E03A
:1021F900FAA3E0F975820575830012062CFFAEF08B
:10220900900A46E0FBA3E0FAA3E0F975820375831F
:102219000012062CFDACF0ED2FFFEC3EFED3EF943F
:1022290009EE9400401B900A46E0FBA3E0FAA3E004
:10223900F975820275830012050AFF7D0212456055
:1022490022900A46E0FBA3E0FAA3E0F97582037540
:10225900830012062CFFAEF0900A52EEF0A3EFF0C5
:10226900900A46E0FBA3E0FAA3E0F97582017583C1
:102279000012050AFF9008B8EFF0900A46E0FBA3A8
:10228900E0FAA3E0F975820275830012050AFF904E
:1022990008B9EFF0900A46E0FBA3E0FAA3E0F9756C
:1022A900820575830012062CFFAEF0EF7803CEC3CA
:1022B90013CE13D8F9FF900A4FEEF0A3EFF0900A6E
:1022C90046E0FBA3E0FAA3E0F975820575830012E5
:1022D900062CFFAEF07E00EF5407FFEF4E600E9024
:1022E9000A50E004F07006900A4FE004F0900A4F9B
:1022F900E0FEA3E0FF9008BAEFF0900A4BE4F0A3E8
:10230900E4F0900A4FE0FEA3E0FF900A4BE0FCA343
:10231900E0FDC3ED9FEC9E400302241C900A4BE0B4
:10232900FEA3E0FF74BB2FF58274083EF583E4F049
:10233900900A4DE4F0A3E4F0900A4DE0FEA3E0FF1B
:10234900C3EF9408EE94004003022408900A52E077
:10235900FEA3E0FF7D01124B2C900A51EFF0900A89
:102369004BE0FEA3E0FF74BB2FF58274083EF583B2
:10237900C083C082E0FF900A4DE0FCA3E0FDAE05FA
:10238900900A51E0FDEDA806088002C333D8FCFE8F
:10239900EF4EFFD082D083EFF0900A53E004F07043
:1023A90006900A52E004F0900A46E0FBA3E0FAA383
:1023B900E0F975820375830012062CFFAEF0900ACE
:1023C90046E0FBA3E0FAA3E0F975820575830012E4
:1023D900062CFDACF0ED2FFFEC3EFE900A52E0FC1E
:1023E900A3E0FDC3ED9FEC9E4004D2088011900A42
:1023F9004EE004F07006900A4DE004F002234120FB
:102409000811900A4CE004F07006900A4BE004F0C1
:1024190002230B7B017A0879B8900A4FE0FEA3E00A
:10242900FFEF2403FD1243A1900A49EEF0A3EFF058
:10243900900A49E0FEA3E0FFEEFF7E00EF54FFFFA4
:10244900900A4FE0FCA3E0FD74BB2DF58274083CB3
:10245900F583EFF0900A49E0FEA3E0FFEF54FFFF98
:10246900900A4FE0FCA3E0FD74BC2DF58274083C92
:10247900F583EFF07B017A0879B8900A4FE0FEA363
:10248900E0FFEF2405FF900ADAEFF07F017E0012EA
:102499004A337E007FB47D007B017A0879B812093E
:0124A90040F2
:0124AA00220F
:0B14D900900A54EBF0A3EAF0A3E9F046
:1014E400900A57E4F0A3E4F0900A59E4F0A3E4F07E
:1014F400900A5BE4F0A3E4F0900A5DE4F0A3E4F066
:101504007E007F037D007B017A0A795F1209409097
:101514000A54E0FBA3E0FAA3E0F9758205758300A1
:1015240012062CFFAEF0C3EF9401EE94004020901D
:101534000A54E0FBA3E0FAA3E0F975820575830081
:1015440012062CFFAEF0D3EF94D0EE9407401B901C
:101554000A54E0FBA3E0FAA3E0F975820275830064
:1015640012050AFF7D0312456022900A54E0FBA392
:10157400E0FAA3E0F975820375830012062CFFAE2E
:10158400F0EFB4002EEEB4222A900A54E0FBA3E05C
:10159400FAA3E0F975820575830012062CFFAEF0FC
:1015A400EF4E600F900A54E0FBA3E0FAA3E0F912B7
:1015B40033DB22900A54E0FBA3E0FAA3E0F975823E
:1015C4000375830012062CFFAEF0EFB4002EEEB4C8
:1015D400212A900A54E0FBA3E0FAA3E0F9758205FE
:1015E40075830012062CFFAEF0EF4E600F900A5484
:1015F400E0FBA3E0FAA3E0F912358E22900A54E04E
:10160400FBA3E0FAA3E0F975820375830012062CAC
:10161400FFAEF0D3EF9403EE9400507A900A54E0B6
:10162400FBA3E0FAA3E0F975820375830012062C8C
:10163400FFAEF0C3EE9400405D900A54E0FBA3E0DB
:10164400FAA3E0F975820575830012062CFFAEF04B
:10165400D3EF9403EE9400503D900A54E0FBA3E0D2
:10166400FAA3E0F975820575830012062CFFAEF02B
:10167400900A54E0FBA3E0FAA3E0F97582037583B2
:101684000012062CFDACF0ED2FFFEC3EFED3EF94E0
:1016940003EE9400401B900A54E0FBA3E0FAA3E09D
:1016A400F975820275830012050AFF7D02124560F6
:1016B40022900A59E4F0A3E4F0900A54E0FBA3E07A
:1016C400FAA3E0F975820575830012062CFFAEF0CB
:1016D400900A59E0FCA3E0FDC3ED9FEC9E40030299
:1016E400177B900A54E0FBA3E0FAA3E0F9758203A8
:1016F40075830012062CFFAEF0900A59E0FCA3E0BB
:10170400FDEF2DFFEE3CFE7D03123FA7900A5BEE3A
:10171400F0A3EFF0900A5BE0FEA3E0FFEEFF7E0093
:10172400EF54FFFD900A59E0FEA3E0FFEF25E0FF30
:10173400EE33FE745F2FF582740A3EF583EDF0906C
:101744000A5BE0FEA3E0FFEF54FFFD900A59E0FEC0
:10175400A3E0FFEF25E0FFEE33FE74602FF5827403
:101764000A3EF583EDF0900A5AE004F07006900A00
:1017740059E004F00216BD900A54E0FBA3E0FAA37A
:10178400E0F975820175830012050AFF900A5DE491
:1017940075F0011205EBADF0FC74B82DF5827408F8
:1017A4003CF583EFF0900A54E0FBA3E0FAA3E0F9E0
:1017B40075820275830012050AFF900A5DE475F0D4
:1017C400011205EBADF0FC74B82DF58274083CF5FC
:1017D40083EFF0900A54E0FBA3E0FAA3E0F97582EA
:1017E4000575830012062CFFAEF0EF25E0FF900A8A
:1017F4005DE475F0011205EBADF0FC74B82DF582D3
:1018040074083CF583EFF0900A59E0FEA3E0FFEF83
:1018140025E0FFEE33FE7B017A0A795FC003C00244
:10182400C001900A5DE0FCA3E0FD74B82DF97408D2
:101834003CFA7B01A801AC02AD03D001D002D00375
:101844001204CB900A59E0FEA3E0FFEF25E0FFEE7F
:1018540033FE900A5EE02FF0900A5DE03EF07B01DB
:101864007A0879B8900A5DE0FEA3E0FFAD07124361
:10187400A1900A57EEF0A3EFF0900A57E0FEA3E020
:10188400FFEEFF7E00EF54FFFF900A5DE475F00168
:101894001205EBADF0FC74B82DF58274083CF583A9
:1018A400EFF0900A57E0FEA3E0FFEF54FFFF900A29
:1018B4005DE475F0011205EBADF0FC74B82DF58212
:1018C40074083CF583EFF07B017A0879B8900A5DDF
:1018D400E0FEA3E0FF900ADAEFF07F017E00124AF7
:1018E400337E007FB47D007B017A0879B812094009
:0118F40022D1
:0B18F50090096EEBF0A3EAF0A3E9F00D
:10190000900971E4F0A3E4F0900973E4F0A3E4F02B
:10191000900975E4F0A3E4F0900977E4F0A3E4F013
:101920007E007F207D007B017A0979791209409041
:10193000096EE0FBA3E0FAA3E0F975820575830068
:1019400012062CFFAEF0C3EF9401EE9400402090FD
:10195000096EE0FBA3E0FAA3E0F975820575830048
:1019600012062CFFAEF0D3EF94D0EE9407401B90FC
:10197000096EE0FBA3E0FAA3E0F97582027583002B
:1019800012050AFF7D031245602290096EE0FBA359
:10199000E0FAA3E0F975820375830012062CFFAE0E
:1019A000F0EFB4002EEEB4222A90096EE0FBA3E023
:1019B000FAA3E0F975820575830012062CFFAEF0DC
:1019C000EF4E600F90096EE0FBA3E0FAA3E0F9127E
:1019D00033DB2290096EE0FBA3E0FAA3E0F9758205
:1019E0000375830012062CFFAEF0EFB4002EEEB4A8
:1019F000212A90096EE0FBA3E0FAA3E0F9758205C5
:101A000075830012062CFFAEF0EF4E600F90096E4A
:101A1000E0FBA3E0FAA3E0F912358E2290096EE014
:101A2000FBA3E0FAA3E0F975820375830012062C8C
:101A3000FFAEF0D3EF9420EE9400507A90096EE060
:101A4000FBA3E0FAA3E0F975820375830012062C6C
:101A5000FFAEF0C3EE9400405D90096EE0FBA3E0A2
:101A6000FAA3E0F975820575830012062CFFAEF02B
:101A7000D3EF9420EE9400503D90096EE0FBA3E07C
:101A8000FAA3E0F975820575830012062CFFAEF00B
:101A900090096EE0FBA3E0FAA3E0F9758203758379
:101AA0000012062CFDACF0ED2FFFEC3EFED3EF94C0
:101AB00020EE9400401B90096EE0FBA3E0FAA3E047
:101AC000F975820275830012050AFF7D02124560D6
:101AD00022900973E4F0A3E4F090096EE0FBA3E028
:101AE000FAA3E0F975820575830012062CFFAEF0AB
:101AF000900973E0FCA3E0FDC3ED9FEC9E40030260
:101B00001B9790096EE0FBA3E0FAA3E0F97582034E
:101B100075830012062CFFAEF0900973E0FCA3E081
:101B2000FDEF2DFFEE3CFE7D04123FA7900975EE00
:101B3000F0A3EFF0900975E0FEA3E0FFEEFF7E005A
:101B4000EF54FFFD900973E0FEA3E0FFEF25E0FFF7
:101B5000EE33FE74792FF58274093EF583EDF09033
:101B60000975E0FEA3E0FFEF54FFFD900973E0FE6E
:101B7000A3E0FFEF25E0FFEE33FE747A2FF58274C9
:101B8000093EF583EDF0900974E004F070069009C9
:101B900073E004F0021AD990096EE0FBA3E0FAA307
:101BA000E0F975820175830012050AFF900977E458
:101BB00075F0011205EBADF0FC74B82DF5827408D8
:101BC0003CF583EFF090096EE0FBA3E0FAA3E0F9A7
:101BD00075820275830012050AFF900977E475F09B
:101BE000011205EBADF0FC74B82DF58274083CF5DC
:101BF00083EFF090096EE0FBA3E0FAA3E0F97582B1
:101C00000575830012062CFFAEF0EF25E0FF90096A
:101C100077E475F0011205EBADF0FC74B82DF58298
:101C200074083CF583EFF0900973E0FEA3E0FFEF4A
:101C300025E0FFEE33FE7B017A097979C003C0020B
:101C4000C001900977E0FCA3E0FD74B82DF9740899
:101C50003CFA7B01A801AC02AD03D001D002D00355
:101C60001204CB900973E0FEA3E0FFEF25E0FFEE46
:101C700033FE900978E02FF0900977E03EF07B0189
:101C80007A0879B8900977E0FEA3E0FFAD07124328
:101C9000A1900971EEF0A3EFF0900971E0FEA3E0CE
:101CA000FFEEFF7E00EF54FFFF900977E475F0012F
:101CB0001205EBADF0FC74B82DF58274083CF58389
:101CC000EFF0900971E0FEA3E0FFEF54FFFF9009F1
:101CD00077E475F0011205EBADF0FC74B82DF582D8
:101CE00074083CF583EFF07B017A0879B8900977A6
:101CF000E0FEA3E0FF900ADAEFF07F017E00124AD7
:101D0000337E007FB47D007B017A0879B8120940E8
:011D100022B0
:0B2EC500900A7DEBF0A3EAF0A3E9F017
:102ED000900A80E4F0A3E4F0900A82E4F0A3E4F026
:102EE000900A84E4F0900A85E4F0A3E4F0900A7D6F
:102EF000E0FBA3E0FAA3E0F97582037583001206F4
:102F00002CFFAEF0C3EE94004020900A7DE0FBA3BE
:102F1000E0FAA3E0F975820375830012062CFFAE78
:102F2000F0D3EF9408EE9400401B900A7DE0FBA3E1
:102F3000E0FAA3E0F975820275830012050AFF7DAD
:102F40000212456022900A7DE0FBA3E0FAA3E0F9BB
:102F500075820875830012062CFFAEF0900A85EE8C
:102F6000F0A3EFF0900A85E0FEA3E0FFEFB4000CC1
:102F7000EEB4FF08900A847401F08011900A85E095
:102F8000FEA3E0FFEF4E7005900A84E4F0900A7D06
:102F9000E0FBA3E0FAA3E0F9758203758300120653
:102FA0002CFFAEF0900A84E0FD7B05124A75900A72
:102FB0007DE0FBA3E0FAA3E0F975820175830012BE
:102FC000050AFF900A82E475F0011205EBADF0FCF2
:102FD00074B82DF58274083CF583EFF0900A7DE01B
:102FE000FBA3E0FAA3E0F975820275830012050ADB
:102FF000FF900A82E475F0011205EBADF0FC74B8A5
:103000002DF58274083CF583EFF0900A7DE0FBA378
:10301000E0FAA3E0F975820375830012062CFFAE77
:10302000F0EEFF7E00EF54FFFF900A82E475F0019E
:103030001205EBADF0FC74B82DF58274083CF583F5
:10304000EFF0900A7DE0FBA3E0FAA3E0F9758203BC
:1030500075830012062CFFAEF0EF54FFFF900A823A
:10306000E475F0011205EBADF0FC74B82DF5827437
:10307000083CF583EFF0900A7DE0FBA3E0FAA3E0C3
:10308000F975820875830012062CFFAEF0EEFF7E04
:1030900000EF54FFFF900A82E475F0011205EBADDA
:1030A000F0FC74B82DF58274083CF583EFF0900ABB
:1030B0007DE0FBA3E0FAA3E0F975820875830012B6
:1030C000062CFFAEF0EF54FFFF900A82E475F0018A
:1030D0001205EBADF0FC74B82DF58274083CF58355
:1030E000EFF07B017A0879B8900A82E0FEA3E0FF56
:1030F000AD071243A1900A80EEF0A3EFF0900A8092
:10310000E0FEA3E0FFEEFF7E00EF54FFFF900A8297
:10311000E475F0011205EBADF0FC74B82DF5827486
:10312000083CF583EFF0900A80E0FEA3E0FFEF5447
:10313000FFFF900A82E475F0011205EBADF0FC741C
:10314000B82DF58274083CF583EFF07B017A08799D
:10315000B8900A82E0FEA3E0FF900ADAEFF07F0168
:103160007E00124A337E007FB47D007B017A0879AD
:04317000B812094048
:013174002238
:0B10B900900A37EBF0A3EAF0A3E9F087
:1010C400900A3AE4F0A3E4F0900A3CE4F0A3E4F0DC
:1010D400900A3EE4F0A3E4F0900A40E4F0A3E4F0C4
:1010E400900A42E4F0A3E4F0900A44E4F0900A4544
:1010F400E4F0C209900A37E0FBA3E0FAA3E0F97533
:10110400820375830012062CFFAEF0900A42EEF0C3
:10111400A3EFF0900A37E0FBA3E0FAA3E0F97582AD
:101124000575830012062CFFAEF0EF7803CEC313CF
:10113400CE13D8F9FF900A45EFF0900A37E0FBA3ED
:10114400E0FAA3E0F975820575830012062CFFAE60
:10115400F07E00EF5407FFEF4E6006900A45E0046E
:10116400F0900A42E0FEA3E0FFC3EE9400406E90CC
:101174000A42E0FEA3E0FFD3EF9408EE9400505D32
:10118400900A37E0FBA3E0FAA3E0F97582057583C2
:101194000012062CFFAEF0D3EF9409EE9400503DFC
:1011A400900A37E0FBA3E0FAA3E0F97582057583A2
:1011B4000012062CFFAEF0900A37E0FBA3E0FAA37E
:1011C400E0F975820375830012062CFDACF0ED2F57
:1011D400FFEC3EFED3EF9409EE9400401B900A37D7
:1011E400E0FBA3E0FAA3E0F975820275830012051F
:1011F4000AFF7D0212456022900A3CE4F0A3E4F069
:10120400900A45E0FF7E00900A3CE0FCA3E0FDC3A9
:10121400ED9FEC9E4003021312900A3EE4F0A3E417
:10122400F0900A3EE0FEA3E0FFC3EF9408EE9400C2
:1012340040030212FE900A37E0FBA3E0FAA3E0F9B0
:10124400E92408F9EA3400FA900A3CE0FEA3E0FF3E
:10125400EF25E0FFEE33FEE92FF9EA3EFA1206012C
:10126400FFAEF0900A3EE0FCA3E0FDEFA805088085
:1012740005CEC313CE13D8F9FFEF5401FF900A44EF
:10128400EFF0900A42E0FEA3E0FF900A44E0FD7B09
:101294000F124A75900A43E004F07006900A42E087
:1012A40004F0900A37E0FBA3E0FAA3E0F9758203A7
:1012B40075830012062CFFAEF0900A37E0FBA3E022
:1012C400FAA3E0F975820575830012062CFDACF0D3
:1012D400ED2FFFEC3EFE900A42E0FCA3E0FDC3EDDF
:1012E4009FEC9E4004D2098011900A3FE004F07004
:1012F40006900A3EE004F0021225200911900A3DEE
:10130400E004F07006900A3CE004F0021204900A33
:1013140037E0FBA3E0FAA3E0F975820175830012BC
:10132400050AFF900A40E475F0011205EBADF0FCEC
:1013340074B82DF58274083CF583EFF0900A37E019
:10134400FBA3E0FAA3E0F975820275830012050A93
:10135400FF900A40E475F0011205EBADF0FC74B89F
:101364002DF58274083CF583EFF0900A37E0FBA377
:10137400E0FAA3E0F975820375830012062CFFAE30
:10138400F0EEFF7E00EF54FFFF900A40E475F00199
:101394001205EBADF0FC74B82DF58274083CF583AE
:1013A400EFF0900A37E0FBA3E0FAA3E0F9758203BB
:1013B40075830012062CFFAEF0EF54FFFF900A4035
:1013C400E475F0011205EBADF0FC74B82DF58274F0
:1013D400083CF583EFF0900A37E0FBA3E0FAA3E0C2
:1013E400F975820575830012062CFFAEF0EEFF7EC0
:1013F40000EF54FFFF900A40E475F0011205EBADD5
:10140400F0FC74B82DF58274083CF583EFF0900A73
:1014140037E0FBA3E0FAA3E0F975820575830012B7
:10142400062CFFAEF0EF54FFFF900A40E475F00184
:101434001205EBADF0FC74B82DF58274083CF5830D
:10144400EFF07B017A0879B8900A40E0FEA3E0FF50
:10145400AD071243A1900A3AEEF0A3EFF0900A3AD6
:10146400E0FEA3E0FFEEFF7E00EF54FFFF900A4092
:10147400E475F0011205EBADF0FC74B82DF582743F
:10148400083CF583EFF0900A3AE0FEA3E0FFEF5446
:10149400FFFF900A40E475F0011205EBADF0FC7417
:1014A400B82DF58274083CF583EFF07B017A087956
:1014B400B8900A40E0FEA3E0FF900ADAEFF07F0163
:1014C4007E00124A337E007FB47D007B017A087966
:0414D400B812094001
:0114D80022F1
:0B24AB00900AC7EBF0A3EAF0A3E9F0F1
:1024B600900ACAE4F0A3E4F0900ACCE4F0A3E4F0B6
:1024C600900AC7E0FBA3E0FAA3E0F97582087583DA
:1024D6000012062CFFAEF0C3EE9400405A900AC7D5
:1024E600E0FBA3E0FAA3E0F9758208758300120603
:1024F6002CFFAEF0D3EF94FFEE94FF503A900AC74C
:10250600E0FBA3E0FAA3E0F97582037583001206E7
:102516002CFFAEF0EFB4003AEEB42036900AC7E0D6
:10252600FBA3E0FAA3E0F975820875830012062C76
:10253600FFAEF0EF4E701B900AC7E0FBA3E0FAA3D4
:10254600E0F975820275830012050AFF7D031245C4
:102556006022900AC7E0FBA3E0FAA3E0F9758203C4
:1025660075830012062CFFAEF0C3EE940040209057
:102576000AC7E0FBA3E0FAA3E0F9758203758300BE
:1025860012062CFFAEF0D3EF9403EE9400403C907D
:102596000AC7E0FBA3E0FAA3E0F97582037583009E
:1025A60012062CFFAEF0EF64007003EE6420601B91
:1025B600900AC7E0FBA3E0FAA3E0F97582027583EF
:1025C6000012050AFF7D0212456022900AC7E0FB51
:1025D600A3E0FAA3E0F975820375830012062CFFC7
:1025E600AEF0900AC7E0FBA3E0FAA3E0F975820813
:1025F60075830012062CFDACF07B06124874900A17
:10260600C7E0FBA3E0FAA3E0F97582037583001225
:10261600062CFFAEF07D06123FA7900AC7E0FBA38B
:10262600E0FAA3E0F975820875830012062CFDAC6A
:10263600F0EF6D7002EE6C6003022809900AC7E0A5
:10264600FBA3E0FAA3E0F975820175830012050A7F
:10265600FF900ACCE475F0011205EBADF0FC74B8FE
:102666002DF58274083CF583EFF0900AC7E0FBA3D2
:10267600E0FAA3E0F975820275830012050AFF905D
:102686000ACCE475F0011205EBADF0FC74B82DF53B
:102696008274083CF583EFF0900AC7E0FBA3E0FAEA
:1026A600A3E0F975820375830012062CFFAEF0EEE7
:1026B600FF7E00EF54FFFF900ACCE475F00112058F
:1026C600EBADF0FC74B82DF58274083CF583EFF0A1
:1026D600900AC7E0FBA3E0FAA3E0F97582037583CD
:1026E6000012062CFFAEF0EF54FFFF900ACCE47503
:1026F600F0011205EBADF0FC74B82DF58274083CC0
:10270600F583EFF0900AC7E0FBA3E0FAA3E0F975C2
:10271600820875830012062CFFAEF0EEFF7E00EFF6
:1027260054FFFF900ACCE475F0011205EBADF0FC06
:1027360074B82DF58274083CF583EFF0900AC7E073
:10274600FBA3E0FAA3E0F975820875830012062C54
:10275600FFAEF0EF54FFFF900ACCE475F0011205CE
:10276600EBADF0FC74B82DF58274083CF583EFF000
:102776007B017A0879B8900ACCE0FEA3E0FFAD07AA
:102786001243A1900ACAEEF0A3EFF0900ACAE0FE47
:10279600A3E0FFEEFF7E00EF54FFFF900ACCE47546
:1027A600F0011205EBADF0FC74B82DF58274083C0F
:1027B600F583EFF0900ACAE0FEA3E0FFEF54FFFFB7
:1027C600900ACCE475F0011205EBADF0FC74B82D5F
:1027D600F58274083CF583EFF07B017A0879B890AE
:1027E6000ACCE0FEA3E0FF900ADAEFF07F017E005C
:1027F600124A337E007FB47D007B017A0879B812D5
:10280600094022900AC7E0FBA3E0FAA3E0F975822B
:0D2816000275830012050AFF7D0412456063
:012823002292
:0B1D1100900A70EBF0A3EAF0A3E9F0E9
:101D1C00900A73E4F0A3E4F0900A75E4F0A3E4F005
:101D2C00900A77E4F0A3E4F0900A7AE4F0900A7B4E
:101D3C00E4F0900A7CE4F0900A70E0FBA3E0FAA3D4
:101D4C00E0F975820375830012062CFFAEF0900A41
:101D5C0077EEF0A3EFF0900A70E0FBA3E0FAA3E0BB
:101D6C00F975820575830012062CFFAEF0C3EF9453
:101D7C0001EE9400405D900A70E0FBA3E0FAA3E052
:101D8C00F975820575830012062CFFAEF0D3EF9423
:101D9C007BEE9400503D900A70E0FBA3E0FAA3E0C8
:101DAC00F975820575830012062CFFAEF0EF25E065
:101DBC00FFEE33FE900A70E0FBA3E0FAA3E0F975A6
:101DCC00820775830012050AFD7C00EF6D7002EE30
:101DDC006C601B900A70E0FBA3E0FAA3E0F975823B
:101DEC000275830012050AFF7D0312456022900ADA
:101DFC0077E0FEA3E0FFC3EE9400403F900A77E04B
:101E0C00FEA3E0FFD3EF9420EE9400502E900A70C6
:101E1C00E0FBA3E0FAA3E0F97582057583001206D6
:101E2C002CFFAEF0900A77E0FCA3E0FDED2FFFEC69
:101E3C003EFED3EF9420EE9400401B900A70E0FB22
:101E4C00A3E0FAA3E0F975820275830012050AFF7C
:101E5C007D0212456022900A797401F0900A70E0BC
:101E6C00FBA3E0FAA3E0F975820575830012062C3A
:101E7C00FFAEF0900A79E0FD7C00D3ED9FEC9E4024
:101E8C0003021F1B900A70E0FBA3E0FAA3E0F9E940
:101E9C002408F9EA3400FAC003C002C001900A79A0
:101EAC00E0FF75F002EFA4F58285F083D001D0023B
:101EBC00D00312062CFFAEF0900A75EEF0A3EFF0F3
:101ECC00900A77E0FEA3E0FF900A75E0FCA3E0FD2A
:101EDC007B10124874900A77E0FEA3E0FF7D10128D
:101EEC003FA7900A75E0FCA3E0FDEFB5050AEEB53F
:101EFC000406900A7BE004F0900A78E004F0700687
:101F0C00900A77E004F0900A79E004F0021E6890E1
:101F1C000A70E0FBA3E0FAA3E0F975820575830073
:101F2C0012062CFFAEF0900A7BE0FD7C00ED6F708A
:101F3C0002EC6E60030220D3900A70E0FBA3E0FA7F
:101F4C00A3E0F975820175830012050AFF900A7CE3
:101F5C00E0FE04F074B82EF582E43408F583EFF05B
:101F6C00900A70E0FBA3E0FAA3E0F9758202758396
:101F7C000012050AFF900A7CE0FE04F074B82EF5FE
:101F8C0082E43408F583EFF0900A70E0FBA3E0FAEA
:101F9C00A3E0F975820375830012062CFFAEF0EEF8
:101FAC00FF7E00EF54FFFF900A7CE0FE04F074B853
:101FBC002EF582E43408F583EFF0900A70E0FBA371
:101FCC00E0FAA3E0F975820375830012062CFFAECC
:101FDC00F0EF54FFFF900A7CE0FE04F074B82EF58D
:101FEC0082E43408F583EFF0900A70E0FBA3E0FA8A
:101FFC00A3E0F975820575830012062CFFAEF0EE96
:10200C00FF7E00EF54FFFF900A7CE0FE04F074B8F2
:10201C002EF582E43408F583EFF0900A70E0FBA310
:10202C00E0FAA3E0F975820575830012062CFFAE69
:10203C00F0EF54FFFF900A7CE0FE04F074B82EF52C
:10204C0082E43408F583EFF07B017A0879B8900AC2
:10205C007CE0FD1243A1900A73EEF0A3EFF0900A1E
:10206C0073E0FEA3E0FFEEFF7E00EF54FFFF900A4B
:10207C007CE0FE04F074B82EF582E43408F583EFAE
:10208C00F0900A73E0FEA3E0FFEF54FFFF900A7C90
:10209C00E0FE04F074B82EF582E43408F583EFF01A
:1020AC007B017A0879B8900A7CE0FF900ADAEFF0AD
:1020BC007F017E00124A337E007FB47D007B017A63
:1020CC000879B812094022900A70E0FBA3E0FAA349
:1020DC00E0F975820275830012050AFF7D04124532
:0120EC006093
:0120ED0022D0
:104B2C00900B04EEF0A3EFF0900B06EDF0900B065B
:104B3C00E0FFEF1208ED4B4C014B4C0200004B61B7
:104B4C00900B04E0FEA3E0FF74122FF58274003E7C
:084B5C00F583E0FF227F002237
:104A7500900AEEEEF0A3EFF0900AF0EDF0900AF157
:104A8500EBF0900AF1E0FFEF1208ED4A9A064A9A18
:104A95000F00004AB3900AF0E0FF900AEEE0FCA395
:0F4AA500E0FD74122DF58274003CF583EFF022D2
:10487400900ADBEEF0A3EFF0900ADDECF0A3EDF08C
:10488400900ADFEBF0900ADFE0FFEF1208ED489C9E
:1048940006489C10000048E0900ADBE0FEA3E0FF1D
:1048A400EFB40012EEB4200E900ADDE0FEA3E0FFA8
:1048B400900000EFF022900ADDE0FCA3E0FD900AF6
:1048C400DBE0FEA3E0FFEF25E0FFEE33FE747F2F75
:0D48D400F58274013EF583ECF0A3EDF022B7
:0D3FA700900AE0EEF0A3EFF0900AE2EDF0DA
:103FB400900AE3E4F0A3E4F0900AE0E0FEA3E0FF5B
:103FC400EFB4000CEEB42008900000E0FF7E002265
:103FD400900AE2E0FFEF1208ED3FED0340100440C9
:103FE400330640331000004059900AE0E0FEA3E09D
:103FF400FFEF25E0241AF582E43400F583E0FEA304
:10400400E0FF900AE3EEF0A3EFF08049900AE0E0CD
:10401400FEA3E0FFEF25E0247FF582E43401F5837D
:10402400E0FEA3E0FF900AE3EEF0A3EFF080269019
:104034000AE0E0FEA3E0FFEF25E0FFEE33FE747F2D
:104044002FF58274013EF583E0FEA3E0FF900AE3BE
:0D405400EEF0A3EFF0900AE3E0FEA3E0FF22
:01406100223C
:102BEA00610003CC00C1814001C0804101C0804125
:102BFA0000C1814001C0804100C1814000C18140C3
:102C0A0001C0804101C0804100C1814000C18140B2
:102C1A0001C0804100C1814001C0804101C08041A2
:102C2A0000C1814001C0804100C1814000C1814092
:102C3A0001C0804100C1814001C0804101C0804182
:102C4A0000C1814000C1814001C0804101C0804172
:102C5A0000C1814001C0804100C1814000C1814062
:102C6A0001C0804101C0804100C1814000C1814052
:102C7A0001C0804100C1814001C0804101C0804142
:102C8A0000C1814000C1814001C0804101C0804132
:102C9A0000C1814001C0804100C1814000C1814022
:102CAA0001C0804100C1814001C0804101C0804112
:102CBA0000C1814001C0804100C1814000C1814002
:102CCA0001C0804101C0804100C1814000C18140F2
:102CDA0001C0804100C1814001C0804101C08041E2
:102CEA0000C18140610004CC00C0C101C30302C21B
:102CFA00C60607C705C5C404CC0C0DCD0FCFCE0E32
:102D0A000ACACB0BC90908C8D81819D91BDBDA1AA1
:102D1A001EDEDF1FDD1D1CDC14D4D515D71716D611
:102D2A00D21213D311D1D010F03031F133F3F23281
:102D3A0036F6F737F53534F43CFCFD3DFF3F3EFEF1
:102D4A00FA3A3BFB39F9F83828E8E929EB2B2AEA61
:102D5A00EE2E2FEF2DEDEC2CE42425E527E7E626D1
:102D6A0022E2E323E12120E0A06061A163A3A26241
:102D7A0066A6A767A56564A46CACAD6DAF6F6EAEB1
:102D8A00AA6A6BAB69A9A86878B8B979BB7B7ABA21
:102D9A00BE7E7FBF7DBDBC7CB47475B577B7B67691
:102DAA0072B2B373B17170B0509091519353529201
:102DBA0096565797559594549C5C5D9D5F9F9E5E71
:102DCA005A9A9B5B99595898884849894B8B8A4AE1
:102DDA004E8E8F4F8D4D4C8C448485458747468651
:082DEA008242438341818040D5
:1043A100900ACEEBF0A3EAF0A3E9F0900AD1EDF088
:1043B100900AD274FFF0900AD374FFF0900AD1E012
:1043C100FF14F0EF6057900ACEE0FBA3E475F00113
:1043D1001205EBA9F0FA1204F1FF900AD2E0FEEE09
:1043E1006FFF900AD4EFF0900AD4E0FF74CC2FF560
:1043F10082E43403F583E0FF900AD3E0FEEE6FFF21
:10440100900AD2EFF0900AD4E0FF74CC2FF582E449
:104411003404F583E0FF900AD3EFF0809F900AD235
:10442100E0FF7E00EF7F00FE900AD3E0FD7C00EE0E
:054431004CFEEF4DFF01
:014436002263
:104B640075930075940075910075920075950075A4
:104B7400960075B10075B20075B30075B40075C9BF
:104B84000075CA0075CB0075CC0075E10075E200B4
:014B940022FE
:102DF2004108B60060B408020000000000000000B4
:102E020000000000000000000000000000000000C0
:102E120000000000000000000000000000000000B0
:102E220000000000000000000000000000000000A0
:102E32000000000000000000000000000000000090
:102E42000000000000000000000000000000000080
:102E52000000000000000000000000000000000070
:102E62000000000000000000000000000000000060
:102E72000000000000000000000000000000000050
:102E82000000000000000000000000000000000040
:102E92000000000000000000000000000000000030
:102EA2000000000000000000000000004307FE01D7
:0C2EB2000802C10B4108B7FF41080101F4
:10406200900B13EFF0900B14EDF0900B13E0FFEFB9
:104072001208ED40850140AC0240C90340F1040042
:1040820000411843A200759850900B14E0FFEF1204
:1040920008ED409E0140A302000040A6538EFE8020
:1040A20003538EFF300A6FD2AC2243BA01900B1435
:1040B200E0FFEF1208ED40BF02000040C2759A1007
:1040C200300A5343AF012243BA02900B14E0FFEFD0
:1040D2001208ED40E40240DF03000040E775AC50F7
:1040E200800375AC1043D10A300A2B43AF08224338
:1040F200BA04900B14E0FFEF1208ED410C024107E5
:10410200040000410F758450800375841043D1A0D0
:07411200300A0343AF012254
:10470B00900B07EEF0A3EFF0900B09EDF0900B0779
:10471B00E0FEA3E0FFEF64014E700A900B09E0FF8F
:10472B008F993099FD900B07E0FEA3E0FFEF640239
:10473B004E700F539AFD900B09E0FF8F9BE59A305B
:10474B00E1FB900B07E0FEA3E0FFEF64034E700F5D
:10475B0053ACFD900B09E0FF8FADE5AC30E1FB9066
:10476B000B07E0FEA3E0FFEF64044E700F5384FDD4
:0D477B00900B09E0FF8F85E58430E1FB2203
:104A3300900AD5EEF0A3EFF0900AD7EBF0A3EAF0DB
:104A4300A3E9F0900ADAE0FF14F0EFD394004021D9
:104A5300900AD5E0FEA3E0FF900AD7E0FBA3E4753C
:104A6300F0011205EBA9F0FA1204F1FD12470B80D5
:024A7300D2224D
:03002300023B435A
:103B4300C0E0C0F0C083C082C0D075D000C000C048
:103B530001C002C003C004C005C006C007309907F6
:103B6300C299C20B023C42209803023C42C2989085
:103B73000801E0FFEF1208ED3B88003B93013C1086
:103B83000800003C3A90096CE4F0A3E4F0023C42E4
:103B930090096CE4F0A3E4F012001EE599600A902A
:103BA3000000E0FFE599B507289008017408F0903C
:103BB30007FEE0FBA3E0FAA3E0F9E5991205A19063
:103BC30007FFE475F0011205D59008B6E004F08014
:103BD3006E900801E4F09008B6E0FFEF60617B01AE
:103BE3007A0879029007FEEBF0A3EAF0A3E9F090DC
:103BF30008B6E0FF7E007D009007FEE0FBA3E0FA3D
:103C0300A3E0F91209409008B6E4F0803290096C01
:103C1300E4F0A3E4F09007FEE0FBA3E0FAA3E0F9ED
:103C2300E5991205A19007FFE475F0011205D590FF
:103C330008B6E004F08008124C31900801E4F0D09B
:103C430007D006D005D004D003D002D001D000D0D5
:0A3C5300D0D082D083D0F0D0E03250
:104C1E0075CF0075CDC075CED043CE0C85CECE43AC
:034C2E00A20C22B3
:104C0700900B18EFF0900B18E0FF8FCFE5CD30E752
:074C1700FB75CDC0AFCF22F9
:062EBE00430B0A0108B6F7
:10443700C28EA20092AB900AE9E0FFEF4289A20187
:10444700E433FFEFC4333354C0FFEF428E900AE5E5
:10445700E0F8A3E0F9A3E0FAA3E0FB7F007EC07DCC
:10446700A87C001206EC7B047A007900780012061B
:10447700ECEFF404F58B900AE5E0F8A3E0F9A3E08C
:10448700FAA3E0FB7F007EC07DA87C001206EC7BD0
:10449700047A00790078001206ECA804A905AA0698
:1044A700AB07C3E49BFFE49AFE740199FDE498FC13
:1044B700780812078C8F8D300205438F02800353D3
:0544C7008FFFD28E22E0
:1041D00053D1F043AF20A204E433FFEF25E0FFEF1B
:1041E00042D1900AF2E0F8A3E0F9A3E0FAA3E0FBE1
:1041F0007F007EC07DA87C001206EC7B047A0079EB
:104200000078001206ECEFF404F5D5900AF2E0F81D
:10421000A3E0F9A3E0FAA3E0FB7F007EC07DA87CC9
:10422000001206EC7B047A00790078001206ECA8F4
:1042300004A905AA06AB07C3E49BFFE49AFE740138
:1042400099FDE498FC780812078C8FD4A203E4331C
:10425000FFEFC43354E0FFEF44DFFFEF528F300530
:0D4260000543D101800353D1FE43D1082254
:04001E0043D10822A0
:044C310053D1F02249
:03009B00023A2303
:103A2300C0E0C0F0C083C082C0D075D000C000C069
:103A330001C002C003C004C005C006C00790096DE1
:103A4300E004F0700690096CE004F090096CE0FE6D
:103A5300A3E0FFD3EF9421EE9400400C900801748F
:103A630001F0124C31023B2890096CE0FEA3E0FF09
:103A7300D3EF940EEE94005003023B28900801E428
:103A8300F09008B6E0FFEF7003023B289008B6E021
:103A9300FFEFD3940740617B017A0279C1C003C071
:103AA30002C0017B017A087902900AA5EBF0A3EA30
:103AB300F0A3E9F09008B6E0FF900AA8EFF0D00178
:103AC300D002D003123C5D7B017A0179BFC003C0F1
:103AD30002C001900B0AE0FBA3E0FAA3E0F9900A0D
:103AE300A5EBF0A3EAF0A3E9F0900AA87401F0D0E3
:103AF30001D002D003123C5D7B017A087902900762
:103B0300FEEBF0A3EAF0A3E9F09008B6E0FF7E0035
:103B13007D009007FEE0FBA3E0FAA3E0F912094061
:103B23009008B6E4F0D007D006D005D004D003D077
:103B330002D001D000D0D0D082D083D0F0D0E032F8
:10426D00900AF6EEF0A3EFF0900AF8ECF0A3EDF063
:10427D00900AF6E0FEA3E0FFEF8EF012091342AFB5
:10428D00000042B7000142BF000242C7000342CF07
:10429D00000442D7000542DF000642E70007000098
:1042AD0042ED5392FE43910180365392FD439102AC
:1042BD00802E5392FB43910480265392F74391082D
:1042CD00801E5392EF43911080165392DF4391203D
:1042DD00800E5392BF439140800653927F4391804D
:1042ED0075BD0075BE0043BC80900AF8E0FEA3E0EA
:0C42FD00FFC374109FFFEF4420F5DE2289
:0845F000900AFAEEF0A3EFF0CF
:1045F800900AFAE0FEA3E0FFEF8EF0120913462AB4
:104608000000462F00014634000246390003463EAA
:1046180000044643000546480006464D00070000D2
:10462800465075BCC0802175BCC1801C75BCC28059
:104638001775BCC3801275BCC4800D75BCC58008D5
:1046480075BCC6800375BCC700000000E5BC30E53A
:10465800FB53BCDFAFBD7E00EF7F00FEADBE7C002C
:10466800EF2DFFEE3CFE900AFCEEF0A3EFF0900A6F
:06467800FCE0FEA3E0FFE0
:01467E002219
:1038C600900B0DEBF0A3EAF0A3E9F0900B0DE0FBF3
:1038D600A3E0FAA3E0F9E92401F9EA3400FA1207B1
:1038E600B2EF5400FFEE5400FEED5400FDEC540020
:1038F600FC1208027F42124C0720B3FD900B0DE02C
:10390600FBA3E0FAA3E0F9E92401F9EA3400FAC0DE
:1039160003C002C0011207B2C004C005C006C0073A
:103926007F00124C07AB07E4FAF9F8D007D006D0AF
:1039360005D004EF4BFFEE4AFEED49FDEC48FCD006
:1039460001D002D003120802900B0DE0FBA3E0FAAF
:10395600A3E0F9E92401F9EA3400FA1207B278087B
:1039660012079F120802900B0DE0FBA3E0FAA3E0FA
:10397600F9E92401F9EA3400FAC003C002C00112D1
:1039860007B2C004C005C006C0077F00124C07ABD3
:1039960007E4FAF9F8D007D006D005D004EF4BFFBC
:1039A600EE4AFEED49FDEC48FCD001D002D00312F0
:1039B6000802900B0DE0FBA3E0FAA3E0F9E924016D
:1039C600F9EA3400FA1207B2780812079F120802C1
:1039D600900B0DE0FBA3E0FAA3E0F9E92401F9EA74
:1039E6003400FAC003C002C0011207B2C004C00509
:1039F600C006C0077F00124C07AB07E4FAF9F8D0FF
:103A060007D006D005D004EF4BFFEE4AFEED49FD88
:0D3A1600EC48FCD001D002D00312080222BF
:104AF100900B19E4F0900B19E4F0900B19E0FFEF23
:104B0100C39441500D7FFF124C07900B19E004F044
:104B110080E87F967E001200037F40124C077FFFE2
:0A4B2100124C07EF30E002C322D36C
:014B2B002267
:10480400900A12EEF0A3EFF0900A14ECF0A3EDF08E
:08481400900A16EAF0A3EBF094
:10481C00900A12E0FEA3E0FFEF54FFFF900A1CEF9A
:10482C00F0900A14E0FEA3E0FF900A1DEEF0A3EF57
:10483C00F0900A16E0FEA3E0FF900A1FEEF0A3EF43
:10484C00F0900A18E0FEA3E0FF900A21EEF0A3EF2F
:10485C00F0900A1AE0FEA3E0FF900A23EEF0A3EF1B
:07486C00F07B017A0A791CC0
:014873002222
:103EE300900999EFF090099AECF0A3EDF090099CFA
:053EF300EAF0A3EBF072
:103EF800900999E0FF9009ABEFF090099AE0FEA3D2
:103F0800E0FF9009ACEEF0A3EFF090099CE0FEA36F
:103F1800E0FF9009AEEEF0A3EFF090099EE0FF906D
:103F280009B0EFF090099FE0FF9009B1EFF0900918
:103F3800A0E0FF9009B2EFF09009A1E0FF9009B36B
:103F4800EFF09009A2E0FF9009B4EFF09009A3E028
:103F5800FF9009B5EFF09009A4E0FF9009B6EFF0E3
:103F68009009A5E0FF9009B7EFF09009A6E0FF904F
:103F780009B8EFF09009A7E0FF9009B9EFF09009B0
:103F8800A8E0FF9009BAEFF09009A9E0FEA3E0FFCE
:0E3F98009009BBEEF0A3EFF07B017A0979AB44
:013FA60022F8
:1044CC009009E2EFF09009E3ECF0A3EDF09009E530
:0544DC00EAF0A3EBF083
:1044E1009009E2E0FF9009F0EFF09009E3E0FEA30C
:1044F100E0FF9009F1EEF0A3EFF09009E5E0FEA3F3
:10450100E0FF9009F3EEF0A3EFF09009E7E0FEA3DE
:10451100E0FF9009F5EEF0A3EFF09009E9E0FEA3CA
:10452100E0FF9009F7EEF0A3EFF09009EBE0FEA3B6
:10453100E0FF9009F9EEF0A3EFF09009EDE0FF90B4
:1045410009FBEFF09009EEE0FF9009FCEFF0900914
:0E455100EFE0FF9009FDEFF07B017A0979F0B1
:01455F002239
:1048E100900A25EFF0900A26EDF0900A27EAF0A34E
:0248F100EBF0EA
:1048F300900A25E0FF900A2EEFF0900A26E0FF9041
:104903000A2FEFF0900A27E0FEA3E0FF900A30EEB3
:10491300F0A3EFF0900A29E0FEA3E0FF900A32EE45
:10492300F0A3EFF0900A2BE0FF900A34EFF0900A27
:104933002CE0FEA3E0FF900A35EEF0A3EFF07B013D
:044943007A0A792E45
:01494700224D
:10494800900A87E0FF124C07900A8AE0FEA3E0FF76
:10495800900A88E0FCA3E0FDEC4EFEED4FFF900AC4
:104968008CE0FCA3E0FDEE4CFEEF4DFFEEFF7E0079
:10497800EF54FFFF124C07900A8EE0FEA3E0FF9071
:104988000A8CE0FCA3E0FDAE05EE4FFF124C077F5A
:07499800057E00123E18220B
:104119009009FEE0FF124C07900A01E0FEA3E0FFC0
:104129009009FFE0FCA3E0FDEC4EFEED4FFF900A85
:1041390003E0FD7C00EE4CFEEF4DFFEEFF7E00EF4D
:1041490054FFFF124C07900A05E0FF900A04E0FEB5
:10415900EE4FFF900A06E0FEEF4EFF900A07E0FEE1
:10416900EF4EFF900A08E0FEEF4EFF124C077F0565
:104179007E00123E18900A09E0FF124C07900A0BC4
:10418900E0FF900A0AE0FEEE4FFF900A0CE0FEEF16
:104199004EFF900A0DE0FEEF4EFF124C07900A0EFB
:1041A900E0FEA3E0FFEEFF7E00EF5407FF124C078D
:1041B900900A0EE0FEA3E0FFEF54FFFF124C077FC9
:0741C900057E00123E1822E2
:10002600900A62E0FF124C07900A65E0FEA3E0FF2B
:10003600900A63E0FCA3E0FDEC4EFEED4FFF900A54
:1000460067E0FCA3E0FDEE4CFEEF4DFF900A69E091
:10005600FCA3E0FDEE4CFEEF4DFF900A6BE0FCA327
:10006600E0FDEE4CFEEF4DFFEEFF7E00EF54FFFF8E
:10007600124C07900A6EE0FF900A6DE0FEEE4FFF0D
:10008600900A6FE0FEEF4EFF124C077F057E0012CE
:030096003E1822EF
:104788007F03124C07900A91E0FF900A90E0FEEE3A
:104798004FFF124C07900A94E0FEA3E0FF900A92A4
:1047A800E0FCA3E0FDEC4EFEED4FFFEEFF7E0012B5
:1047B8004C07900A96E0FF124C077F057E00123ED8
:1047C80018900A97E0FEA3E0FFEF4E60277F0412DF
:1047D8004C07900A97E0FEA3E0FFEEFF7E00EF543F
:1047E800FFFF124C07900A97E0FEA3E0FFEF54FF8B
:0C47F800FF124C077F057E00123E1822C5
:104B9500900B10EFF0900B11EDF0900B12EBF090E5
:104BA5000B12E014FFF0EF70F6900B11E014FFF01C
:0E4BB500EF70EC900B10E014FFF0EF70E222B6
:083E1800900A99EEF0A3EFF00F
:103E2000900A99E0FCA3E0FDE41203417B4C7ADFA9
:103E30007917784C1201967BCD7ACC792C78461282
:103E4000029F12037A900A9E1208907B007A0079F2
:103E5000017800900A9EE0FCA3E0FDA3E0FEA3E051
:103E6000FF1206ECEF54FFFFEE5400FEED5400FD90
:103E7000EC5400FCEF04FF900A9BEFF07B007A010A
:103E800079007800900A9EE0FCA3E0FDA3E0FEA389
:103E9000E0FF1206ECEF54FFFFEE5400FEED54007D
:103EA000FDEC5400FCEF04FF900A9CEFF0900A9E9A
:103EB000E0FCA3E0FDA3E0FEA3E0FFEF54FFFFEE74
:103EC0005400FEED5400FDEC5400FC900A9DEFF010
:103ED000900A9BE0FF900A9CE0FD900A9DE0FB1297
:023EE0004B9500
:013EE20022BD
:10000300900B15EEF0A3EFF0900B1574FF75F0FF56
:0B0013001205EBAFF0FEEF4E70EE2286
:10009E000203E6E86480F8E933E83360110460F0A7
:1000AE00ED33EC337009E8FCE9FDEAFEEBFF2204C8
:1000BE0060DED3EB9FEA9EE99DE8C2E78CF0C2F7C3
:1000CE0095F0400CE8CCF8E9CDF9EACEFAEBCFFB8F
:1000DE001203B185D0F05804700320D5B3E8047034
:1000EE00075002B2D50203F092D5EC0460F7E4CCCF
:1000FE00C0E0C398F8603B94186008400DD0E0FB58
:10010E000203C8E4FBFAC9FC8028E830E406E4C91F
:10011E00FBE4CAFCE830E305E4C9CACBFCE85407AB
:10012E006010F8C3E913F9EA13FAEB13FBEC13FCB6
:10013E00D8F130F52FC3E49CFCEF9BFFEE9AFEED59
:10014E0099FDD0E0FBEF4E4D4C701222DB03020303
:10015E00EDEC2CFCEF33FFEE33FEED33FDED30E72F
:10016E00EB0203C8EF2BFFEE3AFEED39FDD0E0FBBC
:10017E0050130BBB00030203F0ED13FDEE13FEEF65
:08018E0013FFEC13FC0203C88F
:10019600EC4D6011E8497017ED33EC3304600DE463
:1001A600FCFFFEFD22E933E8330470F80203E61291
:1001B60003B158046009E4CC248150062850090292
:1001C60003F02840030203EDC0E0EB4A7044B98017
:1001D60006D0E0FB0203DCEF4E701CBD8008EBFF8F
:1001E600EAFEE9FD80EBE98DF0A4FEE5F002027F70
:1001F600E9CDF9EAFEEBFFEF89F0A4FCE5F0CE8944
:10020600F0A42EFFE435F0CD89F0A42DFEE435F000
:100216008067EF4E7005BD80D780C3EF8BF0A4AC2E
:10022600F0EE8BF0A42CFCE435F0F8EF8AF0A42C69
:10023600E5F038FCE433CB8DF0A42CFCE5F03BF87C
:10024600EE8AF0A42CFCE5F038F8E433CF89F0A46C
:100256002CFCE5F038CF3400CE89F0A42FFFE5F072
:100266003EFEE433C98DF0A42EFEE5F039CD8AF0CA
:10027600A42FFFE5F03EFEE43DFD33D0E0FB500742
:100286000BBB000F0203F0EC2CFCEF33FFEE33FE4A
:06029600ED33FD0203C878
:10029C000203F0EC5D046005E8590470030203E608
:1002AC001203B1580460F6EC4860F2EC7004FDFEE9
:1002BC00FF22C860DB2481C85009C3986002500635
:1002CC000203ED9850CAF582E9294B4A7005AB82BE
:1002DC000203DC75F0007C1A7880C3EF9BEE9AED7C
:1002EC0099400DC3EF9BFFEE9AFEED99FDE842F0AD
:1002FC00DC23ACF0D0E0FFD0E0FED0E0FDAB822000
:10030C00E7101BEB60BAEC2CFCEF33FFEE33FEED89
:10031C0033FD0203C8E803F830E705C0F075F000C0
:10032C00EF2FFFEE33FEED33FD40B830E7C280AA6D
:10033C0075F020800E75F010800575F0087D007E3C
:10034C00007F003392D530D50312077EEC3340107A
:10035C00EF33FFEE33FEED33FDEC33FCD5F0ED2245
:0E036C00E5F0247EA2D513CC92E7CDCEFF2281
:10037A00EDD2E7CD33EC3392D524814006E4FFFE7B
:10038A00FDFC22FCE4CFCECDCC24E0501174FF80DA
:10039A00EDC3CC13CCCD13CDCE13CECF13CF047077
:0703AA00F030D5DE02077EF2
:1003B100E9D2E7C933E833F892D5EDD2E7CD33EC92
:0703C10033FC5002B2D5220B
:1003C800EC30E7100FBF000C0EBE00080DBD000496
:1003D8000BEB6014A2D5EB13FCED92E7FD2274FF42
:1003E800FCFDFEFF22E480F8A2D574FF13FC7D809B
:0303F800E480EFAF
:0300000002467F36
:0C467F00787FE4F6D8FD7581210246C664
:1003FB00E709F608DFFA8046E709F208DFFA803EE4
:10040B0088828C83E709F0A3DFFA8032E309F608D0
:10041B00DFFA8078E309F208DFFA807088828C8338
:10042B00E309F0A3DFFA806489828A83E0A3F608EC
:10043B00DFFA805889828A83E0A3F208DFFA804CC6
:10044B0080D280FA80C680D4806980F2803380109D
:10045B0080A680EA809A80A880DA80E280CA803306
:10046B0089828A83ECFAE493A3C8C582C8CCC5837E
:10047B00CCF0A3C8C582C8CCC583CCDFE9DEE7804E
:10048B000D89828A83E493A3F608DFF9ECFAA9F0CD
:10049B00EDFB2289828A83ECFAE0A3C8C582C8CC23
:1004AB00C583CCF0A3C8C582C8CCC583CCDFEADE3C
:1004BB00E880DB89828A83E493A3F208DFF980CC9E
:1004CB0088F0EF60010E4E60C388F0ED2402B40497
:1004DB000050B9F582EB2402B4040050AF2323453E
:0604EB00822390044B7314
:1004F100BB010689828A83E0225002E722BBFE0209
:09050100E32289828A83E493223B
:10050A00BB010CE58229F582E5833AF583E02250A6
:10051A0006E92582F8E622BBFE06E92582F8E222F0
:0D052A00E58229F582E5833AF583E493220A
:10053700BB0111F8E58229F582E5833AF583E0C826
:1005470028F0E8225009C58229F8C58226C622BBB1
:10055700FE0DC58229F8E2C5822582F2E58222EAEC
:070567002583F583E99322CF
:10056E00BB010FF8E58229F582E5833AF583E02891
:10057E00F0225009C58229F8E58226F622BBFE0933
:10058E00C58229F8E22582F222F8EA2583F583E96D
:03059E009328227D
:1005A100BB010689828A83F0225002F722BBFE0139
:0205B100F32233
:1005B300F8BB010DE58229F582E5833AF583E8F07E
:1005C300225006E92582C8F622BBFE05E92582C82A
:0205D300F22212
:1005D500C5F0F8A3E028F0C5F0F8E58215827002B1
:0605E5001583E038F0224E
:1005EB00A3F8E0C5F025F0F0E582158270021583C3
:0605FB00E0C838F0E82220
:10060100BB010A89828A83E0F5F0A3E022500687C4
:10061100F009E71922BBFE07E3F5F009E319228986
:0B062100828A83E493F5F074019322B9
:10062C00BB0110E58229F582E5833AF583E0F5F00C
:10063C00A3E0225009E92582F886F008E622BBFEE9
:10064C000AE92582F8E2F5F008E222E5832AF5832F
:08065C00E993F5F0A3E99322F4
:10066400BB010A89828A83F0E5F0A3F0225006F7E1
:0F06740009A7F01922BBFE06F3E5F009F31922DE
:10068300F8BB0111E58229F582E5833AF583E8F0A9
:10069300E5F0A3F0225009E92582C8F608A6F02266
:0D06A300BBFE09E92582C8F2E5F008F2224D
:1006B00075F008758200EF2FFFEE33FECD33CDCC01
:1006C00033CCC58233C5829BED9AEC99E582984084
:1006D0000CF582EE9BFEED9AFDEC99FC0FD5F0D661
:1006E000E4CEFBE4CDFAE4CCF9A88222B800C1B98B
:1006F0000059BA002DEC8BF084CFCECDFCE5F0CBC9
:10070000F97818EF2FFFEE33FEED33FDEC33FCEB01
:1007100033FB10D703994004EB99FB0FD8E5E4F9BC
:10072000FA227818EF2FFFEE33FEED33FDEC33FCA9
:10073000C933C910D7059BE99A4007EC9BFCE99A9D
:10074000F90FD8E0E4C9FAE4CCFB2275F010EF2FE2
:10075000FFEE33FEED33FDCC33CCC833C810D707E2
:100760009BEC9AE899400AED9BFDEC9AFCE899F81D
:0E0770000FD5F0DAE4CDFBE4CCFAE4C8F922B0
:0E077E00C3E49FFFE49EFEE49DFDE49CFC228C
:10078C00E8600FECC313FCED13FDEE13FEEF13FF4B
:03079C00D8F1226F
:10079F00E8600FEFC333FFEE33FEED33FDEC33FCB8
:0307AF00D8F1225C
:1007B200BB010789828A830209785005E9F8020998
:1007C2006CBBFE05E9F802098489828A83020990DA
:1007D200BB010DE58229F582E5833AF583020978AA
:1007E2005007E92582F802096CBBFE07E92582F869
:1007F200020984E58229F582E5833AF583020990AC
:10080200BB010789828A830208905005E9F8020930
:0A081200D6BBFE05E9F80209E22258
:10081C00BB010DE58229F582E5833AF58302089048
:10082C005007E92582F80209D6BBFE07E92582F8B4
:04083C000209E222A9
:10084000BB010789828A830209AD5005E9F80209D4
:10085000A0BBFE05E9F80209B989828A830209C6AC
:10086000BB010DE58229F582E5833AF5830209ADE6
:100870005007E92582F80209A0BBFE07E92582F8A6
:100880000209B9E58229F582E5833AF5830209C6B2
:0C089000ECF0A3EDF0A3EEF0A3EFF022DB
:10089C00A8828583F0D083D0821208B31208B312D9
:1008AC0008B31208B3E473E493A3C583C5F0C583FE
:1008BC00C8C582C8F0A3C583C5F0C583C8C582C8A6
:0108CC002209
:1008CD00BB010789828A830209F75005E9F80209FD
:1008DD00EEBBFE05E9F8020A0089828A83020A0945
:1008ED00D083D082F8E4937012740193700DA3A39A
:1008FD0093F8740193F5828883E4737402936860AE
:06090D00EFA3A3A380DFAD
:10091300D083D082F8E4937012740193700DA3A373
:1009230093F8740193F5828883E473740293B5F0AA
:0D093300067403936860E9A3A3A3A380D812
:10094000EF4E6012EF60010EEDBB010B89828A83CE
:10095000F0A3DFFCDEFA2289F05007F709DFFCA9DB
:0C096000F022BBFEFCF309DFFCA9F02232
:10468B00023175E493A3F8E493A34003F68001F29F
:10469B0008DFF48029E493A3F85407240CC8C33330
:1046AB00C4540F4420C8834004F456800146F6DFFF
:1046BB00E4800B0102040810204080902B85E47EDF
:1046CB00019360BCA3FF543F30E509541FFEE493F4
:1046DB00A360010ECF54C025E060A840B8E493A3BB
:1046EB00FAE493A3F8E493A3C8C582C8CAC583CAE6
:1046FB00F0A3C8C582C8CAC583CADFE9DEE780BE9E
:012EC400000D
:0C096C00E6FC08E6FD08E6FE08E6FF22B7
:0C097800E0FCA3E0FDA3E0FEA3E0FF22F2
:0C098400E2FC08E2FD08E2FE08E2FF22AF
:10099000E493FC740193FD740293FE740393FF22AD
:0D09A000E6FB08E6F908E6FA08E6CBF822C7
:0C09AD00E0F8A3E0F9A3E0FAA3E0FB22CD
:0D09B900E2FB08E2F908E2FA08E2CBF822BE
:1009C600E493F8740193F9740293FA740393FB2287
:0C09D600ECF608EDF608EEF608EFF6224D
:0C09E200ECF208EDF208EEF208EFF22251
:0909EE00E6FB08E6FA08E6F9222E
:0909F700E0FBA3E0FAA3E0F92201
:090A0000E2FB08E2FA08E2F92227
:0C0A0900E493FB740193FA740293F92249
:00000001FF
